:020000040800F2
:1000000000500020FD230008C11E0008C91E000882
:10001000D11E0008D91E0008E11E000800000000E3
:10002000000000000000000000000000E91E0008C1
:10003000F51E000800000000011F00080D1F000849
:1000400045240008452400084524000845240008EC
:1000500045240008452400084524000845240008DC
:1000600045240008452400084524000845240008CC
:1000700045240008452400084524000845240008BC
:1000800045240008452400084524000845240008AC
:10009000452400084524000845240008452400089C
:1000A000452400084524000845240008452400088C
:1000B000191F0008452400084524000845240008AD
:1000C000452400084524000845240008452400086C
:1000D000452400082D1F0008452400084524000879
:1000E00045240008452400084524000800000000BD
:1000F0000000000000000000000000000000000000
:0C01000000000000000000005FF808F1A3
:1001100010B5054C237833B9044B13B10448AFF341
:1001200000800123237010BDD801002000000000D2
:100130008099000808B5034B1BB103490348AFF38E
:10014000008008BD00000000DC010020809900084C
:1001500010F8012B11F8013B012A28BF9A42F7D071
:10016000D01A7047034613F8012B002AFBD1181A46
:10017000013870474FF0FF0C1CEAD0521EBF1CEA3A
:10018000D15392EA0C0F93EA0C0F6FD01A4480EA15
:10019000010C400218BF5FEA41211ED04FF00063FE
:1001A00043EA501043EA5111A0FB01310CF000402A
:1001B000B1F5000F3EBF490041EAD3715B0040EA50
:1001C000010062F17F02FD2A1DD8B3F1004F40EB20
:1001D000C25008BF20F00100704790F0000F0CF0F3
:1001E000004C08BF49024CEA502040EA51207F3AB7
:1001F000C2BFD2F1FF0340EAC250704740F4000092
:100200004FF00003013A5DDC12F1190FDCBF00F082
:1002100000407047C2F10002410021FA02F1C2F130
:10022000200200FA02FC5FEA310040F1000053EACC
:100230004C0308BF20EADC70704792F0000F00F01A
:10024000004C02BF400010F4000F013AF9D040EA20
:100250000C0093F0000F01F0004C02BF490011F4B4
:10026000000F013BF9D041EA0C018FE70CEAD153B2
:1002700092EA0C0F18BF93EA0C0F0AD030F0004C32
:1002800018BF31F0004CD8D180EA010000F00040E6
:10029000704790F0000F17BF90F0004F084691F0A4
:1002A000000F91F0004F14D092EA0C0F01D14202DE
:1002B0000FD193EA0C0F03D14B0218BF084608D1A7
:1002C00080EA010000F0004040F0FE4040F40000F1
:1002D000704740F0FE4040F44000704781F000411C
:1002E00002E000BF83F0004330B54FEA41044FEA1B
:1002F000430594EA050F08BF90EA020F1FBF54EAB6
:10030000000C55EA020C7FEA645C7FEA655C00F051
:10031000E2804FEA5454D4EB5555B8BF6D420CDD22
:100320002C4480EA020281EA030382EA000083EAA5
:10033000010180EA020281EA0303362D88BF30BD45
:1003400011F0004F4FEA01314FF4801C4CEA11319B
:1003500002D0404261EB410113F0004F4FEA0333FA
:100360004CEA133302D0524263EB430394EA050F85
:1003700000F0A780A4F10104D5F1200E0DDB02FAF4
:100380000EFC22FA05F2801841F1000103FA0EF288
:10039000801843FA05F359410EE0A5F120050EF14E
:1003A000200E012A03FA0EFC28BF4CF0020C43FA7F
:1003B00005F3C01851EBE37101F0004507D54FF08C
:1003C000000EDCF1000C7EEB00006EEB0101B1F5DC
:1003D000801F1BD3B1F5001F0CD349085FEA300022
:1003E0004FEA3C0C04F101044FEA445212F5800F2D
:1003F00080F09A80BCF1004F08BF5FEA500C50F1CA
:10040000000041EB045141EA050130BD5FEA4C0CAC
:10041000404141EB0101013C28BFB1F5801FE9D209
:1004200091F0000F04BF01460020B1FA81F308BF2C
:100430002033A3F10B03B3F120020CDA0C3208DDF8
:1004400002F1140CC2F10C0201FA0CF021FA02F1D3
:100450000CE002F11402D8BFC2F1200C01FA02F143
:1004600020FA0CFCDCBF41EA0C019040E41AA2BF68
:1004700001EB0451294330BD6FEA04041F3C1CDA30
:100480000C340EDC04F11404C4F1200220FA04F050
:1004900001FA02F340EA030021FA04F345EA0301FA
:1004A00030BDC4F10C04C4F1200220FA02F001FABC
:1004B00004F340EA0300294630BD21FA04F029463E
:1004C00030BD94F0000F83F4801306BF81F48011D7
:1004D0000134013D4EE77FEA645C18BF7FEA655C4A
:1004E00029D094EA050F08BF90EA020F05D054EA1C
:1004F000000C04BF1946104630BD91EA030F1EBF21
:100500000021002030BD5FEA545C05D14000494124
:1005100028BF41F0004130BD14F580043CBF01F517
:10052000801130BD01F0004545F0FE4141F47001FD
:100530004FF0000030BD7FEA645C1ABF19461046D8
:100540007FEA655C1CBF0B46024650EA013406BFD9
:1005500052EA033591EA030F41F4002130BD00BF98
:1005600090F0000F04BF0021704730B54FF4806455
:1005700004F132044FF000054FF0000150E700BFD6
:1005800090F0000F04BF0021704730B54FF4806435
:1005900004F1320410F0004548BF40424FF0000122
:1005A0003EE700BF42004FEAE2014FEA31014FEA65
:1005B00002701FBF12F07F4393F07F4F81F06051B4
:1005C000704732F07F4208BF704793F07F4F04BFFF
:1005D00041F40021704730B54FF4607401F00045DC
:1005E00021F000411CE700BF50EA010208BF70473C
:1005F00030B54FF000050AE050EA010208BF70472D
:1006000030B511F0004502D5404261EB41014FF495
:10061000806404F132045FEA915C3FF4D8AE4FF09D
:1006200003025FEADC0C18BF03325FEADC0C18BF80
:10063000033202EBDC02C2F1200300FA03FC20FAD1
:1006400002F001FA03FE40EA0E0021FA02F114441E
:10065000BDE600BF70B54FF0FF0C4CF4E06C1CEA37
:1006600011541DBF1CEA135594EA0C0F95EA0C0FA8
:1006700000F0DEF82C4481EA030621EA4C5123EA1B
:100680004C5350EA013518BF52EA033541F480114A
:1006900043F4801338D0A0FB02CE4FF00005E1FBFD
:1006A00002E506F00042E0FB03E54FF00006E1FB47
:1006B00003569CF0000F18BF4EF0010EA4F1FF048A
:1006C000B6F5007F64F5407404D25FEA4E0E6D41CA
:1006D00046EB060642EAC62141EA55514FEAC520DB
:1006E00040EA5E504FEACE2EB4F1FD0C88BFBCF557
:1006F000E06F1ED8BEF1004F08BF5FEA500E50F108
:10070000000041EB045170BD06F0004646EA0101CD
:1007100040EA020081EA0301B4EB5C04C2BFD4EBFF
:100720000C0541EA045170BD41F480114FF0000EF8
:10073000013C00F3AB8014F1360FDEBF002001F066
:10074000004170BDC4F10004203C35DA0C341BDCE0
:1007500004F11404C4F1200500FA05F320FA04F0B2
:1007600001FA05F240EA020001F0004221F00041E6
:1007700010EBD37021FA04F642EB06015EEA430E59
:1007800008BF20EAD37070BDC4F10C04C4F1200589
:1007900000FA04F320FA05F001FA04F240EA02003C
:1007A00001F0004110EBD37041F100015EEA430E0D
:1007B00008BF20EAD37070BDC4F1200500FA05F22D
:1007C0004EEA020E20FA04F301FA05F243EA0203AC
:1007D00021FA04F001F0004121FA04F220EA0200BB
:1007E00000EBD3705EEA430E08BF20EAD37070BD01
:1007F00094F0000F0FD101F00046400041EB0101E1
:1008000011F4801F08BF013CF7D041EA060195F0C2
:10081000000F18BF704703F00046520043EB03037C
:1008200013F4801F08BF013DF7D043EA0603704769
:1008300094EA0C0F0CEA135518BF95EA0C0F0CD074
:1008400050EA410618BF52EA4306D1D181EA0301BA
:1008500001F000414FF0000070BD50EA410606BFB4
:100860001046194652EA430619D094EA0C0F02D1F9
:1008700050EA013613D195EA0C0F05D152EA03363E
:100880001CBF104619460AD181EA030101F000415C
:1008900041F0FE4141F470014FF0000070BD41F0A5
:1008A000FE4141F4780170BD70B54FF0FF0C4CF47F
:1008B000E06C1CEA11541DBF1CEA135594EA0C0F9E
:1008C00095EA0C0F00F0A7F8A4EB050481EA030EEB
:1008D00052EA03354FEA013100F088804FEA0333D2
:1008E0004FF0805545EA131343EA12634FEA0222A0
:1008F00045EA111545EA10654FEA00260EF0004161
:100900009D4208BF964244F1FD0404F5407402D2B2
:100910005B084FEA3202B61A65EB03055B084FEA43
:1009200032024FF480104FF4002CB6EB020E75EB40
:10093000030E22BFB61A754640EA0C005B084FEA68
:100940003202B6EB020E75EB030E22BFB61A7546E5
:1009500040EA5C005B084FEA3202B6EB020E75EB30
:10096000030E22BFB61A754640EA9C005B084FEAA8
:100970003202B6EB020E75EB030E22BFB61A7546B5
:1009800040EADC0055EA060E18D04FEA051545EAA4
:1009900016754FEA06164FEAC30343EA52734FEA4D
:1009A000C2025FEA1C1CC0D111F4801F0BD141EAC6
:1009B00000014FF000004FF0004CB6E711F4801F2B
:1009C00004BF01430020B4F1FD0C88BFBCF5E06F0B
:1009D0003FF6AFAEB5EB030C04BFB6EB020C5FEA1B
:1009E000500C50F1000041EB045170BD0EF0004E70
:1009F0004EEA113114EB5C04C2BFD4EB0C0541EAA2
:100A0000045170BD41F480114FF0000E013C90E69E
:100A100045EA060E8DE60CEA135594EA0C0F08BF62
:100A200095EA0C0F3FF43BAF94EA0C0F0AD150EA61
:100A300001347FF434AF95EA0C0F7FF425AF1046F4
:100A400019462CE795EA0C0F06D152EA03353FF41C
:100A5000FDAE1046194622E750EA410618BF52EA99
:100A600043067FF4C5AE50EA41047FF40DAF52EA6D
:100A700043057FF4EBAE12E74FF0FF3C06E000BF0A
:100A80004FF0010C02E000BF4FF0010C4DF804CD17
:100A90004FEA410C7FEA6C5C4FEA430C18BF7FEAD7
:100AA0006C5C1BD001B050EA410C0CBF52EA430C05
:100AB00091EA030F02BF90EA020F0020704710F185
:100AC000000F91EA030F58BF994208BF90422CBF14
:100AD000D8176FEAE37040F0010070474FEA410C0D
:100AE0007FEA6C5C02D150EA013C07D14FEA430C2B
:100AF0007FEA6C5CD6D152EA033CD3D05DF8040B9C
:100B0000704700BF8446104662468C4619466346CD
:100B100000E000BF01B5FFF7B7FF002848BF10F1A4
:100B2000000F01BD4DF808EDFFF7F4FF0CBF0120E9
:100B300000205DF808FB00BF4DF808EDFFF7EAFF65
:100B400034BF012000205DF808FB00BF4DF808ED20
:100B5000FFF7E0FF94BF012000205DF808FB00BF15
:100B60004DF808EDFFF7CEFF94BF012000205DF89F
:100B700008FB00BF4DF808EDFFF7C4FF34BF0120AC
:100B800000205DF808FB00BF4FEA410C7FEA6C5C77
:100B900002D150EA013C0AD14FEA430C7FEA6C5C77
:100BA00002D152EA033C02D14FF0000070474FF0EF
:100BB000010070474FEA410212F5001215D211D51B
:100BC0006FF47873B3EB625212D94FEAC12343F04A
:100BD000004343EA505311F0004F23FA02F018BFCC
:100BE000404270474FF00000704750EA013005D195
:100BF00011F0004008BF6FF0004070474FF0000058
:100C0000704700BF4A0011D212F5001211D20DD563
:100C10006FF47873B3EB62520ED44FEAC12343F002
:100C2000004343EA505323FA02F070474FF00000AC
:100C3000704750EA013002D14FF0FF3070474FF05B
:100C4000000070474FEA4102B2F1E04324BFB3F520
:100C5000001CDCF1FE5C0DD901F0004C4FEAC00233
:100C60004CEA5070B2F1004F40EB830008BF20F017
:100C70000100704711F0804F21D113F13872BCBFD1
:100C800001F00040704741F480114FEA5252C2F126
:100C90001802C2F1200C10FA0CF320FA02F018BF6F
:100CA00040F001004FEAC1234FEAD32303FA0CFCC2
:100CB00040EA0C0023FA02F34FEA4303CCE77FEA51
:100CC000625307D150EA01331EBF4FF0FE4040F49B
:100CD0004000704701F0004040F0FE4040F400004A
:100CE000704700BF80F0004002E000BF81F000418B
:100CF00042001FBF5FEA410392EA030F7FEA226CC2
:100D00007FEA236C6AD04FEA1262D2EB1363C1BF51
:100D1000D218414048404140B8BF5B42192B88BFC0
:100D2000704710F0004F40F4000020F07F4018BFE3
:100D3000404211F0004F41F4000121F07F4118BF03
:100D4000494292EA030F3FD0A2F1010241FA03FCAB
:100D500010EB0C00C3F1200301FA03F100F0004393
:100D600002D5494260EB4000B0F5000F13D3B0F15B
:100D7000807F06D340084FEA310102F10102FE2ACA
:100D800051D2B1F1004F40EBC25008BF20F001003A
:100D900040EA03007047490040EB0000013A28BFD9
:100DA000B0F5000FEDD2B0FA80FCACF1080CB2EB5C
:100DB0000C0200FA0CF0AABF00EBC25052421843DA
:100DC000BCBFD0401843704792F0000F81F400017F
:100DD00006BF80F400000132013BB5E74FEA410352
:100DE0007FEA226C18BF7FEA236C21D092EA030FBE
:100DF00004D092F0000F08BF0846704790EA010F38
:100E00001CBF0020704712F07F4F04D1400028BF64
:100E100040F00040704712F100723CBF00F5000046
:100E2000704700F0004343F0FE4040F4000070477C
:100E30007FEA226216BF08467FEA23630146420228
:100E400006BF5FEA412390EA010F40F4800070473B
:100E50004FF0000304E000BF10F0004348BF4042E1
:100E60005FEA000C08BF704743F0964301464FF01D
:100E700000001CE050EA010208BF70474FF0000379
:100E80000AE000BF50EA010208BF704711F00043BA
:100E900002D5404261EB41015FEA010C02BF84468A
:100EA0000146002043F0B64308BFA3F18053A3F5E9
:100EB0000003BCFA8CF2083AA3EBC25310DB01FA30
:100EC00002FC634400FA02FCC2F12002BCF1004FB4
:100ED00020FA02F243EB020008BF20F00100704745
:100EE00002F1200201FA02FCC2F1200250EA4C0099
:100EF00021FA02F243EB020008BF20EADC707047DF
:100F00004FF0FF3C06E000BF4FF0010C02E000BFD5
:100F10004FF0010C4DF804CD4FEA40024FEA410377
:100F20007FEA226C18BF7FEA236C11D001B052EA2D
:100F3000530C18BF90EA010F58BFB2EB030088BFF3
:100F4000C81738BF6FEAE17018BF40F00100704762
:100F50007FEA226C02D15FEA402C05D17FEA236C44
:100F6000E4D15FEA412CE1D05DF8040B704700BF8B
:100F7000844608466146FFE70FB5FFF7C9FF002822
:100F800048BF10F1000F0FBD4DF808EDFFF7F4FF5B
:100F90000CBF012000205DF808FB00BF4DF808EDF4
:100FA000FFF7EAFF34BF012000205DF808FB00BF17
:100FB0004DF808EDFFF7E0FF94BF012000205DF839
:100FC00008FB00BF4DF808EDFFF7D2FF94BF0120EA
:100FD00000205DF808FB00BF4DF808EDFFF7C8FFE3
:100FE00034BF012000205DF808FB00BF4FEA40023B
:100FF000B2F1FE4F0FD34FF09E03B3EB12620DD947
:101000004FEA002343F0004310F0004F23FA02F0B0
:1010100018BF404270474FF00000704712F1610F57
:1010200001D1420205D110F0004008BF6FF000402E
:1010300070474FF00000704738B500220023044687
:101040000D46FFF779FD28B920462946BDE838400E
:1010500000F00AB8204605F1004100F005F84042D2
:1010600061EB410138BD00BFD0B500220B4B0646F5
:101070000F46FFF7EFFAFFF7C5FD0446FFF770FADA
:101080000022074BFFF7E6FA02460B463046394688
:10109000FFF728F9FFF7B6FD2146D0BD0000F03D6F
:1010A0000000F04180B584B000AF3B1D00221A6003
:1010B0005A609A60184B194A1A60174B00229A60BE
:1010C000154B00221A73144B00221A75124B4FF461
:1010D0006022DA61104B00225A600F4B01221A6124
:1010E0000D4801F037FA0346002B01D000F0FCFD5B
:1010F00000237B600123BB600023FB603B1D19467E
:10110000054801F0EBFC0346002B01D000F0ECFD9C
:1011100000BF1037BD4680BDF4010020002401400F
:1011200080B588B000AF786007F1100300221A6024
:101130005A609A60DA607B681B68144A934221D136
:10114000134B9B69124A43F400739361104B9B69E4
:1011500003F40073FB60FB680D4B9B690C4A43F082
:10116000040393610A4B9B6903F00403BB60BB68F3
:1011700001233B6103237B6107F1100319460548F6
:1011800002F0AAF800BF2037BD4680BD0024014010
:101190000010024000080140B0B588B000AF786090
:1011A0000B46FB701346BB700023FB61FB78112BD1
:1011B0004DD801A252F823F00112000807120008CE
:1011C0000D12000813120008191200081F1200085F
:1011D000251200082B1200083112000837120008EF
:1011E0003D120008431200084F1200084F12000879
:1011F0004F1200084F1200084F1200084912000851
:101200000023FB6023E00123FB6020E00223FB605E
:101210001DE00323FB601AE00423FB6017E00523B5
:10122000FB6014E00623FB6011E00723FB600EE087
:101230000823FB600BE00923FB6008E00A23FB6046
:1012400005E00B23FB6002E01123FB6000BF0723D6
:101250007B6101233B6107F10C031946786801F0BB
:101260003DFC0023FB7613E0786801F04BFA1E2169
:10127000786801F021FB786801F024FC0246FB69E4
:101280001344FB61786801F0EBFAFB7E0133FB76D7
:10129000FA7EBB789A42E7D3F869FFF761F9044612
:1012A0000D46BB781846FFF76BF902460B46204601
:1012B0002946FFF7F9FA02460B4610461946FFF792
:1012C000A1FC034618462037BD46B0BDB0B584B07A
:1012D00000AF7860084611461A460346FB700B467D
:1012E000BB7013467B707B78002B02D0786801F0CE
:1012F00089FDBA78FB7819467868FFF74DFFF860EA
:101300007B78002B02D0134801F07CFDBB781A4695
:1013100011211048FFF740FFB860F868FFF720F987
:101320004FF033320C4BFFF795F902460B4614464B
:101330001D46B868FFF714F902460B4620462946B9
:10134000FFF7B2FA02460B46104619461037BD4663
:10135000B0BD00BFF40100203333F33F80B588B047
:1013600000AF07F1100300221A605A609A60DA6039
:101370001E4B9B691D4A43F0100393611B4B9B69F5
:1013800003F01003FB60FB68184B9B69174A43F09E
:1013900020039361154B9B6903F02003BB60BB687E
:1013A000124B9B69114A43F0040393610F4B9B69F5
:1013B00003F004037B607B6800224FF400510C486B
:1013C00002F00EF94FF400533B6101237B610023CF
:1013D000BB610223FB6107F110031946044801F0C9
:1013E0007BFF00BF2037BD4680BD00BF001002401C
:1013F0000010014080B582B000AF7860391D4FF613
:10140000FF730122034803F050FE7B68184608373B
:10141000BD4680BD0C030020B0B588B000AF4FF0D2
:101420000003FB6100237B8301F00EF800F090F9CC
:10143000FFF794FF00F064FFFFF734FE00F094FE26
:1014400000F046FEAF4BB04A1A60AE4B4FF00002C0
:101450005A60AC4BAD4A9A60AA4BAD4ADA61A94BCF
:101460004FF000029A61A74B002283F82420A54B7D
:10147000A84A1A62A34B4FF000021A61A64801F075
:10148000C1FC012303220021A348FFF71FFF0246EE
:101490000B4610461946FFF7D5FB03467B619F4B71
:1014A0001B6879691846FFF721FC03461A46954BDD
:1014B0009A619B4802F0A6FE00219A4802F044FF80
:1014C000984B1B6800225A6301229749974803F002
:1014D0007EFE0723FB600123BB604FF4005194485C
:1014E00002F096F8C82001F011F84FF4005190482E
:1014F00002F08EF8C82001F009F84FF400518C4832
:1015000002F086F8C82001F001F88A4B1B78002B06
:10151000FBD0884B00221A7000237B603B1D1946CC
:101520007D4801F0DBFA7C4801F0ECF81E217A4896
:1015300001F0C2F9784801F0C5FA03467B8276488B
:1015400001F08EF911237B603B1D1946724801F0B2
:10155000C5FA714801F0D6F81E216F4801F0ACF9C8
:101560006D4801F0AFFA03463B826B4801F078F911
:101570007B8A1846FFF76CFC03461846FFF712F803
:101580004FF033326C4BFFF765F802460B461446BA
:101590001D463B8A1846FFF75BFC03461846FFF7DB
:1015A00001F802460B4620462946FFF77DF9024620
:1015B0000B4610461946FFF745FB03467B61F86969
:1015C000FEF7F0FF4FF000025C4BFFF743F80246D6
:1015D0000B4614461D467869FEF7E4FF4FF0000203
:1015E000564BFFF737F802460B4620462946FEF7D2
:1015F0007BFE02460B4610461946FFF723FB0346C7
:10160000FB614F4B1B78002B72D0444B1B687A69EF
:1016100019463C4800F06EFB3A4B5B6B4FF0000103
:101620001846FFF7BBFC0346002B04D03D4B1B685C
:1016300000225A6333E0334B5B6B42491846FFF795
:10164000CBFC0346002B06D0364B1A68354B1B6883
:10165000D26A5A6323E02B4B5B6B1846FEF7A2FF5E
:101660004FF00002384BFFF71FF902460B461446B5
:101670001D462C4B1B68DB6A1846FEF771FF0246BD
:101680000B4620462946FEF7E5FF02460B46254954
:101690000C6810461946FFF7B5FA034663637B8B67
:1016A00001337B837B8B312B7FF62FAF00237B8332
:1016B0001A4B1B6823491846FEF75CFD0346184683
:1016C000FFF794FC04461F497869FEF753FD034673
:1016D0001846FFF78BFC05460A4B5B6B1846FFF775
:1016E00085FC03462A462146184805F0A5FD0CE76F
:1016F0000C4B1B6800225A63024B4FF000021A6128
:1017000003E700BF240200200020804400000E44B4
:10171000CDCC4C3F00002041F4010020000000200F
:101720007C020020C40200205D0200200C03002087
:10173000001001405C0200203333F33F0000E03F23
:101740005E0200200000C84200005940989900083D
:1017500080B594B000AF07F1280328220021184675
:1017600005F0B2FE07F1140300221A605A609A6075
:10177000DA601A613B1D00221A605A609A60DA60D2
:101780000123BB624FF48033FB6200233B630123E0
:10179000BB6302237B644FF48033BB644FF4E013DC
:1017A000FB6407F12803184601F04CFF0346002BA9
:1017B00001D000F099FA0F237B610223BB61002363
:1017C000FB614FF480633B6200237B6207F11403EB
:1017D0000221184602F0B8F90346002B01D000F0B0
:1017E00083FA02237B604FF40043FB603B1D1846E5
:1017F00002F042FB0346002B01D000F075FA00BF57
:101800005037BD4680BD000080B483B000AF786023
:101810007B68054A934202D1044B01221A7000BF33
:101820000C37BD4680BC70477C0200205C02002063
:10183000B0B584B000AF78607B681B689C4A934267
:1018400040F02E829B4B1B782B2B27D19A4B9B6809
:101850004FF07E511846FFF74BFA03461A46964B57
:101860009A60954B1B681846FFF7C0FB0446924BE5
:101870005B6892491846FEF77DFC03461846FFF761
:10188000B5FB05468C4B9B681846FFF7AFFB03463C
:101890002A4621468A4805F0CFFCFCE1854B1B789F
:1018A0002D2B27D1844B9B684FF07E511846FFF7B4
:1018B0001DFA03461A46804B9A607F4B1B681846F8
:1018C000FFF794FB04467C4B5B687C491846FEF7A7
:1018D00051FC03461846FFF789FB0546764B9B688B
:1018E0001846FFF783FB03462A462146744805F055
:1018F000A3FCD0E16F4B1B78292B27D16E4B1B68C3
:101900004FF080411846FFF7F3F903461A466A4B39
:101910001A60694B1B681846FFF768FB0446664B64
:101920005B6866491846FEF725FC03461846FFF734
:101930005DFB0546604B9B681846FFF757FB034667
:101940002A4621465E4805F077FCA4E1594B1B78F6
:10195000282B27D1584B1B684FF080411846FFF7C2
:10196000C5F903461A46544B1A60534B1B68184678
:10197000FFF73CFB0446504B5B6850491846FEF7A6
:10198000F9FB03461846FFF731FB05464A4B9B68B7
:101990001846FFF72BFB03462A462146484805F028
:1019A0004BFC78E1434B1B783C2B2FD1424B5B68BF
:1019B0001846FEF7F7FD3CA3D3E90023FEF792FC9F
:1019C00002460B4610461946FFF73CF903463A4AD1
:1019D0005360394B1B681846FFF708FB0446364B2B
:1019E0005B6836491846FEF7C5FB03461846FFF705
:1019F000FDFA0546304B9B681846FFF7F7FA034699
:101A00002A4621462E4805F017FC44E1294B1B7855
:101A10003E2B2FD1284B5B681846FEF7C3FD22A34F
:101A2000D3E90023FEF760FC02460B461046194638
:101A3000FFF708F90346204A53601F4B1B681846FE
:101A4000FFF7D4FA04461C4B5B681C491846FEF7A6
:101A500091FB03461846FFF7C9FA0546164B9B68EB
:101A60001846FFF7C3FA03462A462146144805F0F4
:101A7000E3FB10E10F4B1B780A2B27D00D4B1B7893
:101A80000D2B23D00F4B1B78122B1FD80D4B1B781F
:101A90005A1CD1B20B4A11701A46064B19780A4BE0
:101AA0009954F8E0AFF300809A9999999999B93FC0
:101AB000003801405D020020240200200000204187
:101AC000A89900087402002060020020764B1B7861
:101AD0001A46764B00219954734B1B78002B00F06B
:101AE000D78073497148FEF733FB0346002B06D1BC
:101AF000704B01221A70704805F006FCC8E06F496F
:101B00006A48FEF725FB0346002B06D1694B0022ED
:101B10001A706B4805F0F8FBBAE0644B1B78702B29
:101B200003D0624B1B78502B29D1664B184603F02B
:101B3000A7FF02460B4610461946FFF783F80346F7
:101B4000614A1360604B1B681846FFF74FFA044662
:101B50005D4B5B685D491846FEF70CFB0346184673
:101B6000FFF744FA0546584B9B681846FFF73EFAC4
:101B700003462A462146564805F05EFB88E04B4B5B
:101B80001B78692B03D0494B1B78492B29D14D4B2E
:101B9000184603F075FF02460B4610461946FFF73C
:101BA00051F80346484A5360474B1B681846FFF7F5
:101BB0001DFA0446444B5B6844491846FEF7DAFABE
:101BC00003461846FFF712FA05463F4B9B68184636
:101BD000FFF70CFA03462A4621463D4805F02CFB48
:101BE00056E0324B1B78642B03D0304B1B78442BD0
:101BF00029D1344B184603F043FF02460B461046EA
:101C00001946FFF71FF803462F4A93602E4B1B68B7
:101C10001846FFF7EBF904462B4B5B682B49184637
:101C2000FEF7A8FA03461846FFF7E0F90546264BEB
:101C30009B681846FFF7DAF903462A4621462448EE
:101C400005F0FAFA24E0194803F01AFF02460B46A1
:101C500010461946FEF7F6FF0346FB604FF0000101
:101C6000F868FFF7B9F90346002B11D0194AFB6851
:101C70001360184B1B6818491846FEF77BFA034699
:101C80001846FFF7B3F903461946144805F0D4FA8D
:101C9000054B00221A7001221149124803F097FAED
:101CA00000BF1037BD46B0BD7402002060020020A6
:101CB000C09900085E020020C8990008D899000861
:101CC000E099000861020020240200200000204169
:101CD000A8990008000000200000C842F099000800
:101CE0005D0200200C03002080B400AF72B600BF7C
:101CF00000BFFDE790B585B000AFF860B9607A60CD
:101D00007968B868FEF7F2FF03461A46FB68DA60A6
:101D1000FB68DA68FB689B6919461046FEF7E6FF28
:101D200003461A46FB685A61FB681A69FB68DB6860
:101D300019461046FEF7DCFF03461A46FB681A6197
:101D4000FB68DB6919467868FFF728F90346002B22
:101D500014D0FB684FF00002DA62FB684FF000021B
:101D60001A63FB684FF000025A63FB68DA68FB688D
:101D70009A61FB68002283F824206BE0FB68012253
:101D800083F82420FB681A69FB681B6A1946104611
:101D9000FFF722F90346002B04D0FB681A6AFB68A0
:101DA0001A611BE0FB681C69FB681B6A19464FF04F
:101DB0000000FEF79BFF034619462046FFF7EEF8AA
:101DC0000346002B0AD0FB681B6A19464FF000003F
:101DD000FEF78CFF03461A46FB681A61FB681A6817
:101DE000FB68DB6819461046FEF7C4F903461A463D
:101DF000FB689A62FB685A68FB681B6919461046C3
:101E0000FEF7B8F903461A46FB68DA62FB689A687F
:101E1000FB685B6919461046FEF7ACF903461A46A3
:101E2000FB681A63FB689A6AFB68DB6A194610460E
:101E3000FEF75EFF03461A46FB681B6B1946104609
:101E4000FEF756FF03461A46FB685A63FB68DA68DA
:101E5000FB689A611437BD4690BD000080B485B020
:101E600000AF154B9B69144A43F001039361124B79
:101E70009B6903F00103BB60BB680F4BDB690E4A33
:101E800043F08053D3610C4BDB6903F080537B60DC
:101E90007B680A4B5B68FB60FB6823F0E063FB60D8
:101EA000FB6843F08063FB60044AFB68536000BF3B
:101EB0001437BD4680BC704700100240000001404E
:101EC00080B400AF00BFFDE780B400AF00BFFDE706
:101ED00080B400AF00BFFDE780B400AF00BFFDE7F6
:101EE00080B400AF00BFFDE780B400AF00BFBD46C7
:101EF00080BC704780B400AF00BFBD4680BC704757
:101F000080B400AF00BFBD4680BC704780B500AF55
:101F100000F0E0FA00BF80BD80B500AF024802F0DB
:101F2000B5FA00BF80BD00BF7C02002080B500AFC5
:101F3000024803F07DF900BF80BD00BF0C03002004
:101F400080B400AF01231846BD4680BC704780B501
:101F500082B000AF7860396005F02AFB0346162294
:101F60001A604FF0FF3318460837BD4680BD80B574
:101F700082B000AF78604FF0FF317868FFF7E7FF7D
:101F800000BFFDE780B586B000AFF860B9607A6049
:101F900000237B610AE0AFF300800146BB685A1C56
:101FA000BA60CAB21A707B6901337B617A697B6857
:101FB0009A42F0DB7B6818461837BD4680BD80B575
:101FC00086B000AFF860B9607A6000237B6109E0F9
:101FD000BB685A1CBA601B781846FFF70BFA7B697E
:101FE00001337B617A697B689A42F1DB7B68184632
:101FF0001837BD4680BD80B483B000AF78604FF025
:10200000FF3318460C37BD4680BC704780B483B0A0
:1020100000AF786039603B684FF400525A6000238B
:1020200018460C37BD4680BC704780B483B000AF03
:102030007860012318460C37BD4680BC704780B4D9
:1020400085B000AFF860B9607A6000231846143795
:10205000BD4680BC7047000080B586B000AF786098
:10206000144A154BD31A7B617B693B61134B1B6888
:10207000002B02D1114B124A1A60104B1A687B6870
:1020800013443A699A4207D205F092FA03460C22A9
:102090001A604FF0FF3309E0084B1B68FB60074BE9
:1020A0001A687B681344054A1360FB6818461837A2
:1020B000BD4680BD005000200004000078020020D2
:1020C000A004002080B400AF00BFBD4680BC7047B4
:1020D00080B586B000AF07F1080300221A605A608D
:1020E0009A60DA603B4600221A605A601D4B4FF03E
:1020F00080421A601B4B47225A601A4B00229A609A
:10210000184B40F21F32DA60164B00221A61154B51
:1021100000229A61134802F025F80346002B01D0F3
:10212000FFF7E2FD4FF48053BB6007F10803194647
:102130000C4802F071FB0346002B01D0FFF7D4FDE1
:1021400000233B6000237B603B461946054802F0B4
:10215000EFFE0346002B01D0FFF7C6FD00BF183786
:10216000BD4680BD7C02002080B58AB000AF07F17B
:10217000200300221A605A603B1D00221A605A6038
:102180009A60DA601A615A619A61214B214A1A6099
:102190001F4B47225A601E4B00229A601C4BF922AB
:1021A000DA601B4B00221A61194B80229A61184891
:1021B00002F07AF80346002B01D0FFF795FD0023CB
:1021C0003B6200237B6207F120031946104802F0AE
:1021D000AFFE0346002B01D0FFF786FD60237B6036
:1021E0000023BB600023FB6000237B613B1D0022BA
:1021F0001946074802F052FA0346002B01D0FFF7B8
:1022000073FD034800F04AF800BF2837BD4680BD83
:10221000C40200200004004080B584B000AF7860A4
:102220007B681B68B3F1804F13D10C4BDB690B4A01
:1022300043F00103D361094BDB6903F00103FB6049
:10224000FB68002200211C2000F05FFF1C2000F032
:1022500078FF00BF1037BD4680BD00BF00100240B0
:1022600080B485B000AF78607B681B68094A9342F0
:102270000BD1094BDB69084A43F00203D361064BDB
:10228000DB6903F00203FB60FB6800BF1437BD4647
:1022900080BC7047000400400010024080B588B048
:1022A00000AF786007F1100300221A605A609A604C
:1022B000DA607B681B680F4A934217D10E4B9B690B
:1022C0000D4A43F0040393610B4B9B6903F0040335
:1022D000FB60FB6840233B6102237B610223FB61BF
:1022E00007F110031946054800F0F6FF00BF20373C
:1022F000BD4680BD000400400010024000080140BF
:1023000080B500AF114B124A1A60104B4FF4E13206
:102310005A600E4B00229A600C4B0022DA600B4B85
:1023200000221A61094B0C225A61084B00229A6163
:10233000064B0022DA61054802F06AFE0346002BD4
:1023400001D0FFF7D1FC00BF80BD00BF0C0300200F
:102350000038014080B588B000AF786007F1100305
:1023600000221A605A609A60DA607B681B68204A13
:10237000934239D11F4B9B691E4A43F480439361BA
:102380001C4B9B6903F48043FB60FB68194B9B6902
:10239000184A43F004039361164B9B6903F004034E
:1023A000BB60BB684FF400733B6102237B61032376
:1023B000FB6107F1100319460F4800F08DFF4FF441
:1023C00080633B6100237B610023BB6107F1100345
:1023D0001946094800F080FF00220421252000F062
:1023E00094FE252000F0ADFE00BF2037BD4680BD25
:1023F0000038014000100240000801400C480D491F
:102400000D4A002302E0D458C4500433C4188C424F
:10241000F9D30A4A0A4C002301E013600432A242B5
:10242000FBD3FFF74FFE05F0C9F8FEF7F5FF704745
:1024300000000020D80100207C9E0008D801002068
:10244000A0040020FEE7000080B500AF084B1B6829
:10245000074A43F010031360032000F04BFE0020F6
:1024600000F008F8FFF7FAFC0023184680BD00BF13
:102470000020024080B582B000AF7860124B1A682D
:10248000124B1B7819464FF47A73B3FBF1F3B2FB8E
:10249000F3F3184600F063FE0346002B01D001233E
:1024A0000EE07B680F2B0AD8002279684FF0FF30CE
:1024B00000F02BFE064A7B681360002300E0012336
:1024C00018460837BD4680BD040000200C000020DF
:1024D0000800002080B400AF054B1B781A46054B5E
:1024E0001B681344034A136000BFBD4680BC70479D
:1024F0000C0000205003002080B400AF024B1B688A
:102500001846BD4680BC70475003002080B584B09B
:1025100000AF7860FFF7F0FFB8607B68FB60FB6896
:10252000B3F1FF3F05D00A4B1B781A46FB681344F2
:10253000FB6000BFFFF7E0FF0246BB68D31AFA68F2
:102540009A42F7D800BF00BF1037BD4680BD00BF1C
:102550000C00002080B586B000AF78600023FB75CA
:1025600000233B610023BB600023FB607B68002BE2
:1025700001D10123BEE07B689B68002B7B689B6ACE
:10258000002B09D17B680022DA627B68002283F885
:1025900024207868FEF7C4FD786800F0F1FB03465C
:1025A000FB757B689B6A03F01003002B40F0998059
:1025B000FB7D002B40F095807B689B6A23F4885359
:1025C00023F0020343F002027B689A627B685A6838
:1025D0007B68DB691A437B681B7B5B001343BA682B
:1025E0001343BB607B689B68B3F5807F03D07B6837
:1025F0009B68012B02D14FF4807300E000233A69FD
:1026000013433B617B681B7D012B19D17B681B7BCE
:10261000002B09D17B689B69013B5A033B6913433B
:1026200043F400633B610BE07B689B6A43F020024C
:102630007B689A627B68DB6A43F001027B68DA623E
:102640007B681B685B6823F469417B681B683A6997
:102650000A435A607B681B689A68284B13407A6863
:102660001268B9680B4393607B689B68B3F5807F01
:1026700003D07B689B68012B04D17B681B69013BFD
:102680001B05FB607B681B68DB6A23F470017B68B9
:102690001B68FA680A43DA627B681B689A68184B01
:1026A0001340BA689A420BD17B680022DA627B68D9
:1026B0009B6A23F0030343F001027B689A6218E0EF
:1026C0007B689B6A23F0120343F010027B689A62D6
:1026D0007B68DB6A43F001027B68DA620123FB75E9
:1026E00007E07B689B6A43F010027B689A620123D3
:1026F000FB75FB7D18461837BD4680BDFDF7E1FF31
:10270000FE0E1FFF80B584B000AF78600023FB731E
:102710007B6893F82430012B01D1022398E07B6879
:10272000012283F82420786800F0D0FA0346FB7376
:10273000FB7B002B40F087807B689B6A23F440730F
:1027400023F0010343F480727B689A627B681B6804
:10275000414A934205D1414B5B6803F47023002B3F
:1027600015D17B689B6A23F480127B689A627B6830
:102770001B685B6803F48063002B26D07B689B6A30
:1027800023F4405343F480527B689A621DE07B68D7
:102790009B6A43F480127B689A627B681B682F4AAD
:1027A000934204D07B681B682B4A93420DD12B4B7C
:1027B0005B6803F48063002B07D07B689B6A23F47B
:1027C000405343F480527B689A627B689B6A03F4AF
:1027D0008053002B06D07B68DB6A23F006027B68FF
:1027E000DA6202E07B680022DA627B68002283F80A
:1027F00024207B681B686FF002021A607B681B68EC
:102800009B6803F46023B3F5602F13D17B681B68CA
:10281000114A934205D1114B5B6803F47023002BDE
:1028200008D17B681B689A687B681B6842F4A00229
:102830009A600CE07B681B689A687B681B6842F4AE
:1028400080129A6003E07B68002283F82420FB7BDF
:1028500018461037BD4680BD0028014000240140C5
:1028600080B584B000AF78600023FB737B6893F879
:102870002430012B01D102231AE07B68012283F866
:102880002420786800F07CFA0346FB73FB7B002B66
:1028900009D17B689B6A23F4885323F0010343F03A
:1028A00001027B689A627B68002283F82420FB7B0C
:1028B00018461037BD4680BD90B587B000AF786030
:1028C000396000237B610023FB6000233B61FFF73D
:1028D00013FE78617B681B689B6803F48073002B90
:1028E0000BD07B689B6A43F020027B689A627B680E
:1028F000002283F824200123D3E07B681B685B68F7
:1029000003F48073002B31D17B681B68DB6A03F40E
:102910007003002B2AD121E03B68B3F1FF3F1DD0AB
:102920003B68002B07D0FFF7E7FD02467B69D31A0F
:102930003A689A4212D27B681B681B6803F0020354
:10294000002B0BD17B689B6A43F004027B689A6280
:102950007B68002283F824200323A2E07B681B68A5
:102960001B6803F00203002BD6D070E04F4B1C68AD
:10297000022001F037FB0346B4FBF3F27B681B68CF
:1029800019694B4B0B40002B18D17B681B68D96829
:10299000484B0B40002B11D17B681B681969464BD3
:1029A0000B40002B08D17B681B68D968434B0B4058
:1029B000002B01D1142320E029231EE07B681B6833
:1029C00019693D4B0B40002B06D17B681B68D96809
:1029D0003A4B0B40002B0DD07B681B681969384BB4
:1029E0000B40002B08D17B681B68D968344B0B4027
:1029F000002B01D1542300E0FC2302FB03F33B61D5
:102A000021E03B68B3F1FF3F1AD03B68002B07D0B1
:102A1000FFF772FD02467B69D31A3A689A420FD2D9
:102A2000FB683A699A420BD97B689B6A43F00402BF
:102A30007B689A627B68002283F82420032330E0BD
:102A4000FB680133FB60FB683A699A42D9D87B681E
:102A50001B686FF012021A607B689B6A43F4007275
:102A60007B689A627B681B689B6803F46023B3F5FC
:102A7000602F15D17B681B7B002B11D17B689B6A73
:102A800023F480727B689A627B689B6A03F48053AC
:102A9000002B05D17B689B6A43F001027B689A6238
:102AA000002318461C37BD4690BD00BF040000201F
:102AB00024499224244992009224491292244900E4
:102AC0004992240080B483B000AF78607B681B68B3
:102AD000DB6C18460C37BD4680BC704780B485B0AF
:102AE00000AF786039600023FB730023BB607B6814
:102AF00093F82430012B01D10223DCE07B68012212
:102B000083F824203B685B68062B1CD87B681B6815
:102B1000596B3B685A6813469B001344053B1F22C0
:102B200002FA03F3DB4319403B6818683B685A68B4
:102B300013469B001344053B00FA03F27B681B68B5
:102B40000A435A633CE03B685B680C2B1CD87B68EB
:102B50001B68196B3B685A6813469B001344233B60
:102B60001F2202FA03F3DB4319403B6818683B68F5
:102B70005A6813469B001344233B00FA03F27B6818
:102B80001B680A431A631BE07B681B68D96A3B68B1
:102B90005A6813469B001344413B1F2202FA03F379
:102BA000DB4319403B6818683B685A6813469B0032
:102BB0001344413B00FA03F27B681B680A43DA6264
:102BC0003B681B68092B1CD97B681B68D9683B686C
:102BD0001A6813465B0013441E3B072202FA03F3F4
:102BE000DB4319403B6898683B681A6813465B00F2
:102BF00013441E3B00FA03F27B681B680A43DA6049
:102C000019E07B681B6819693B681A6813465B000A
:102C10001344072202FA03F3DB4319403B68986828
:102C20003B681A6813465B00134400FA03F27B68A2
:102C30001B680A431A613B681B68102B03D03B6872
:102C40001B68112B32D17B681B681D4A934225D12A
:102C50007B681B689B6803F40003002B26D17B680C
:102C60001B689A687B681B6842F400029A603B68A4
:102C70001B68102B1AD1134B1B68134AA2FB0323AA
:102C80009A0C13469B0013445B00BB6002E0BB68D8
:102C9000013BBB60BB68002BF9D107E07B689B6AF6
:102CA00043F020027B689A620123FB737B68002259
:102CB00083F82420FB7B18461437BD4680BC704740
:102CC000002401400400002083DE1B4380B584B053
:102CD00000AF78600023FB600023BB607B681B684B
:102CE0009B6803F00103012B40D07B681B689A6846
:102CF0007B681B6842F001029A601F4B1B681F4AE9
:102D0000A2FB03239B0CBB6002E0BB68013BBB60E2
:102D1000BB68002BF9D1FFF7EFFBF8601FE0FFF76E
:102D2000EBFB0246FB68D31A022B18D97B681B68A1
:102D30009B6803F00103012B11D07B689B6A43F071
:102D400010027B689A627B68DB6A43F001027B6851
:102D5000DA627B68002283F82420012307E07B6885
:102D60001B689B6803F00103012BD8D10023184690
:102D70001037BD4680BD00BF0400002083DE1B432A
:102D800080B584B000AF78600023FB607B681B686F
:102D90009B6803F00103012B2ED17B681B689A68A6
:102DA0007B681B6822F001029A60FFF7A5FBF860C0
:102DB0001BE0FFF7A1FB0246FB68D31A022B14D9D4
:102DC0007B681B689B6803F00103012B0DD17B68B6
:102DD0009B6A43F010027B689A627B68DB6A43F06F
:102DE00001027B68DA62012307E07B681B689B684D
:102DF00003F00103012BDCD0002318461037BD4639
:102E000080BD000090B587B000AF78600023FB75EF
:102E10000023FB607B6893F82430012B01D102234F
:102E200095E07B68012283F824207868FFF7A8FFEB
:102E30000346FB75FB7D002B40F084807B689B6A1A
:102E400023F4885323F0020343F002027B689A6262
:102E5000414B1C68022001F0C5F80346B4FBF3F3B4
:102E60005B00FB6002E0FB68013BFB60FB68002B42
:102E7000F9D17868FFF72AFF7B681B689A687B683E
:102E80001B6842F008029A60FFF736FB38611BE0CE
:102E9000FFF732FB02463B69D31A0A2B14D97B6831
:102EA0001B689B6803F00803002B0DD07B689B6AAE
:102EB00023F0120343F010027B689A627B680022C1
:102EC00083F82420012342E07B681B689B6803F0A1
:102ED0000803002BDCD17B681B689A687B681B6841
:102EE00042F004029A60FFF707FB38611BE0FFF72E
:102EF00003FB02463B69D31A0A2B14D97B681B6873
:102F00009B6803F00403002B0DD07B689B6A23F0C1
:102F1000120343F010027B689A627B68002283F8F8
:102F20002420012313E07B681B689B6803F00403E3
:102F3000002BDCD17B689B6A23F0030343F0010282
:102F40007B689A627B68002283F82420FB7D184608
:102F50001C37BD4690BD00BF0400002080B485B082
:102F600000AF78607B6803F00703FB600C4BDB6805
:102F7000BB60BA684FF6FF031340BB60FB681A02E0
:102F8000BB68134343F0BF6343F40033BB60044AA0
:102F9000BB68D36000BF1437BD4680BC704700BF1C
:102FA00000ED00E080B400AF044BDB681B0A03F0C7
:102FB00007031846BD4680BC704700BF00ED00E027
:102FC00080B483B000AF0346FB7197F90730002B44
:102FD0000BDBFB7903F01F02064997F907305B0909
:102FE000012000FA02F241F8232000BF0C37BD4651
:102FF00080BC704700E100E080B483B000AF0346BE
:103000003960FB7197F90730002B0ADB3B68DAB2B5
:103010000C4997F907301201D2B20B4483F8002310
:103020000AE03B68DAB20849FB7903F00F03043B7E
:103030001201D2B20B441A7600BF0C37BD4680BCD9
:10304000704700BF00E100E000ED00E080B489B00F
:1030500000AFF860B9607A60FB6803F00703FB61BA
:10306000FB69C3F10703042B28BF0423BB61FB6981
:103070000433062B02D9FB69033B00E000237B618C
:103080004FF0FF32BB6902FA03F3DA43BB681A4020
:103090007B699A404FF0FF317B6901FA03F3D94312
:1030A0007B680B40134318462437BD4680BC7047ED
:1030B00080B582B000AF78607B68013BB3F1807F60
:1030C00001D301230FE00A4A7B68013B53600F21C3
:1030D0004FF0FF30FFF790FF054B00229A60044B42
:1030E00007221A60002318460837BD4680BD00BF7E
:1030F00010E000E080B582B000AF78607868FFF73C
:103100002DFF00BF0837BD4680BD80B586B000AF3B
:103110000346B9607A60FB7300237B61FFF742FFCF
:1031200078617A68B9687869FFF790FF024697F985
:103130000F3011461846FFF75FFF00BF1837BD4636
:1031400080BD80B582B000AF0346FB7197F90730B0
:103150001846FFF735FF00BF0837BD4680BD80B574
:1031600082B000AF78607868FFF7A2FF0346184688
:103170000837BD4680BD80B485B000AF78600023BD
:10318000FB737B6893F82130022B08D07B68042204
:103190009A637B68002283F82020012320E07B686B
:1031A0001B681A687B681B6822F00E021A607B6835
:1031B0001B681A687B681B6822F001021A607B6832
:1031C0001A6C7B68DB6B012101FA02F25A607B68A2
:1031D000012283F821207B68002283F82020FB7BDA
:1031E00018461437BD4680BC7047000080B584B0D7
:1031F00000AF78600023FB737B6893F82130022BCB
:1032000005D07B6804229A630123FB7351E07B683D
:103210001B681A687B681B6822F00E021A607B68C4
:103220001B681A687B681B6822F001021A607B68C1
:103230001B68224A934229D07B681B68204A93422C
:1032400022D07B681B681F4A93421AD07B681B6898
:103250001D4A934212D07B681B681C4A93420AD0D5
:103260007B681B681A4A934202D14FF480130EE028
:103270004FF080730BE04FF4803308E04FF480533D
:1032800005E04FF4807302E0102300E00123114AAF
:1032900053607B68012283F821207B68002283F839
:1032A00020207B685B6B002B03D07B685B6B7868AE
:1032B0009847FB7B18461037BD4680BD080002408A
:1032C0001C0002403000024044000240580002400E
:1032D0006C0002400000024080B48BB000AF786008
:1032E000396000237B6200233B6269E101227B6A33
:1032F00002FA03F3FB613B681B68FA691340BB6188
:10330000BA69FB699A4240F058813B685B689A4A07
:1033100093425ED0984A934275D8984A934258D0C7
:10332000964A93426FD8964A934252D0944A934217
:1033300069D8944A93424CD0924A934263D8924AB5
:10334000934246D0904A93425DD8122B2AD8122B32
:1033500059D801A252F823F0D3330008AD33000846
:10336000BF330008013400080734000807340008A0
:103370000734000807340008073400080734000841
:103380000734000807340008073400080734000831
:10339000073400080734000807340008B533000874
:1033A000C9330008794A934213D02CE03B68DB68AC
:1033B0003B6229E03B68DB6804333B6224E03B6806
:1033C000DB6808333B621FE03B68DB680C333B6221
:1033D0001AE03B689B68002B02D104233B6213E098
:1033E0003B689B68012B05D108233B627B68FA6927
:1033F0001A6109E008233B627B68FA695A6103E0BD
:1034000000233B6200E000BFBB69FF2B01D87B6853
:1034100001E07B6804337B61BB69FF2B02D87B6AC8
:103420009B0002E07B6A083B9B003B617B691A685A
:103430000F213B6901FA03F3DB431A40396A3B6908
:1034400001FA03F31A437B691A603B685B6803F077
:103450008053002B00F0B1804D4B9B694C4A43F0E8
:10346000010393614A4B9B6903F00103BB60BB6896
:10347000484A7B6A9B08023352F82330FB607B6A20
:1034800003F003039B000F2202FA03F3DB43FA6805
:103490001340FB607B68404A934213D07B683F4AED
:1034A00093420DD07B683E4A934207D07B683D4AE9
:1034B000934201D1032306E0042304E0022302E047
:1034C000012300E000237A6A02F003029200934095
:1034D000FA681343FB602F497B6A9B080233FA6842
:1034E00041F823203B685B6803F48033002B06D04F
:1034F0002D4B1A682C49BB6913430B6006E02A4B1D
:103500001A68BB69DB43284913400B603B685B6862
:1035100003F40033002B06D0234B5A682249BB69C1
:1035200013434B6006E0204B5A68BB69DB431E49DE
:1035300013404B603B685B6803F48013002B06D09C
:10354000194B9A681849BB6913438B6006E0164B08
:103550009A68BB69DB43144913408B603B685B6826
:1035600003F40013002B21D00F4BDA680E49BB691E
:103570001343CB6021E000BF000032100000311087
:103580000000221000002110000012100000111095
:10359000001002400000014000080140000C014002
:1035A0000010014000140140000401400B4BDA6898
:1035B000BB69DB4309491340CB607B6A01337B6203
:1035C0003B681A687B6A22FA03F3002B7FF48EAE05
:1035D00000BF00BF2C37BD4680BC704700040140CF
:1035E00080B483B000AF78600B467B8013467B705D
:1035F0007B78002B03D07A887B681A6103E07B8894
:103600001A047B681A6100BF0C37BD4680BC704746
:1036100080B485B000AF78600B467B807B68DB6848
:10362000FB607A88FB6813401A04FB68D9437B88E7
:103630000B401A437B681A6100BF1437BD4680BC3B
:103640007047000080B586B000AF78607B68002BC3
:1036500001D1012372E27B681B6803F00103002B98
:1036600000F08780924B5B6803F00C03042B0CD0B6
:103670008F4B5B6803F00C03082B12D18C4B5B68FB
:1036800003F48033B3F5803F0BD1894B1B6803F4FF
:103690000033002B6CD07B685B68002B68D1012362
:1036A0004CE27B685B68B3F5803F06D1804B1B68BA
:1036B0007F4A43F4803313602EE07B685B68002B05
:1036C0000CD17B4B1B687A4A23F480331360784B10
:1036D0001B68774A23F4802313601DE07B685B68D6
:1036E000B3F5A02F0CD1724B1B68714A43F48023B1
:1036F00013606F4B1B686E4A43F4803313600BE01A
:103700006B4B1B686A4A23F480331360684B1B6859
:10371000674A23F4802313607B685B68002B13D017
:10372000FEF7EAFE386108E0FEF7E6FE02463B6976
:10373000D31A642B01D9032300E25D4B1B6803F409
:103740000033002BF0D014E0FEF7D6FE386108E01D
:10375000FEF7D2FE02463B69D31A642B01D903233C
:10376000ECE1534B1B6803F40033002BF0D100E075
:1037700000BF7B681B6803F00203002B63D04C4B37
:103780005B6803F00C03002B0BD0494B5B6803F024
:103790000C03082B1CD1464B5B6803F48033002BD1
:1037A00016D1434B1B6803F00203002B05D07B6846
:1037B0001B69012B01D00123C0E13D4B1B6823F0A5
:1037C000F8027B685B69DB00394913430B603AE020
:1037D0007B681B69002B20D0364B01221A60FEF754
:1037E0008BFE386108E0FEF787FE02463B69D31A7C
:1037F000022B01D90323A1E12D4B1B6803F0020327
:10380000002BF0D02A4B1B6823F0F8027B685B6921
:10381000DB00274913430B6015E0264B00221A609A
:10382000FEF76AFE386108E0FEF766FE02463B6975
:10383000D31A022B01D9032380E11D4B1B6803F02F
:103840000203002BF0D17B681B6803F00803002BF8
:103850003AD07B689B69002B19D0174B01221A6064
:10386000FEF74AFE386108E0FEF746FE02463B6975
:10387000D31A022B01D9032360E10D4B5B6A03F0DD
:103880000203002BF0D0012000F0D8FA1CE00A4B14
:1038900000221A60FEF730FE38610FE0FEF72CFEC2
:1038A00002463B69D31A022B08D9032346E100BF25
:1038B000001002400000424280044242924B5B6A88
:1038C00003F00203002BE9D17B681B6803F00403BB
:1038D000002B00F0A6800023FB758B4BDB6903F007
:1038E0008053002B0DD1884BDB69874A43F080530E
:1038F000D361854BDB6903F08053BB60BB68012358
:10390000FB75824B1B6803F48073002B18D17F4B2F
:103910001B687E4A43F480731360FEF7EDFD386147
:1039200008E0FEF7E9FD02463B69D31A642B01D992
:10393000032303E1754B1B6803F48073002BF0D065
:103940007B68DB68012B06D16F4B1B6A6E4A43F024
:10395000010313622DE07B68DB68002B0CD16A4BFE
:103960001B6A694A23F001031362674B1B6A664AAC
:1039700023F0040313621CE07B68DB68052B0CD189
:10398000614B1B6A604A43F0040313625E4B1B6A7F
:103990005D4A43F0010313620BE05B4B1B6A5A4A1A
:1039A00023F001031362584B1B6A574A23F00403A8
:1039B00013627B68DB68002B15D0FEF79DFD386134
:1039C0000AE0FEF799FD02463B69D31A41F28832BC
:1039D000934201D90323B1E04B4B1B6A03F002036E
:1039E000002BEED014E0FEF787FD38610AE0FEF709
:1039F00083FD02463B69D31A41F28832934201D9D2
:103A000003239BE0404B1B6A03F00203002BEED123
:103A1000FB7D012B05D13C4BDB693B4A23F08053F6
:103A2000D3617B68DB69002B00F08780364B5B68D5
:103A300003F00C03082B61D07B68DB69022B46D1B5
:103A4000334B00221A60FEF757FD386108E0FEF79D
:103A500053FD02463B69D31A022B01D903236DE0C3
:103A6000294B1B6803F00073002BF0D17B681B6AA5
:103A7000B3F5803F08D1244B5B6823F400327B68A8
:103A80009B68214913434B601F4B5B6823F47412FE
:103A90007B68196A7B685B6A0B431B4913434B6065
:103AA0001B4B01221A60FEF727FD386108E0FEF784
:103AB00023FD02463B69D31A022B01D903233DE0C3
:103AC000114B1B6803F00073002BF0D035E0104B56
:103AD00000221A60FEF710FD386108E0FEF70CFDC9
:103AE00002463B69D31A022B01D9032326E0064B79
:103AF0001B6803F00073002BF0D11EE07B68DB69CC
:103B0000012B07D1012319E0001002400070004092
:103B1000600042420B4B5B68FB60FB6803F4803241
:103B20007B681B6A9A4206D1FB6803F470127B68BB
:103B30005B6A9A4201D0012300E00023184618373F
:103B4000BD4680BD0010024080B584B000AF7860F3
:103B500039607B68002B01D10123D0E06A4B1B68E0
:103B600003F007033A689A4210D9674B1B6823F0A9
:103B7000070265493B6813430B60634B1B6803F006
:103B800007033A689A4201D00123B8E07B681B68BA
:103B900003F00203002B20D07B681B6803F00403B2
:103BA000002B05D0594B5B68584A43F4E0635360DF
:103BB0007B681B6803F00803002B05D0534B5B6840
:103BC000524A43F460535360504B5B6823F0F00259
:103BD0007B689B684D4913434B607B681B6803F00F
:103BE0000103002B40D07B685B68012B07D1474B5A
:103BF0001B6803F40033002B15D101237FE07B68A1
:103C00005B68022B07D1414B1B6803F00073002B4C
:103C100009D1012373E03D4B1B6803F00203002B25
:103C200001D101236BE0394B5B6823F003027B6811
:103C30005B68364913434B60FEF75EFCF8600AE0B0
:103C4000FEF75AFC0246FB68D31A41F288329342CF
:103C500001D9032353E02D4B5B6803F00C027B6812
:103C60005B689B009A42EBD1274B1B6803F007036C
:103C70003A689A4210D2244B1B6823F0070222496B
:103C80003B6813430B60204B1B6803F007033A6843
:103C90009A4201D0012332E07B681B6803F00403E1
:103CA000002B08D0194B5B6823F4E0627B68DB686B
:103CB000164913434B607B681B6803F00803002B15
:103CC00009D0124B5B6823F460527B681B69DB00F0
:103CD0000E4913434B6000F021F802460B4B5B6822
:103CE0001B0903F00F030A49CB5C22FA03F3094ACC
:103CF0001360094B1B681846FEF7BCFB00231846EF
:103D00001037BD4680BD00BF0020024000100240B9
:103D1000289A0008040000200800002090B48AB00F
:103D200000AF294B3C1D0FCB84E80F0040F201236C
:103D30003B800023FB610023BB6100237B620023E7
:103D40007B6100233B62214B5B68FB61FB6903F0F5
:103D50000C03042B02D0082B03D02BE01C4B3B623E
:103D60002BE0FB699B0C03F00F0328333B4413F853
:103D7000243C7B61FB6903F48033002B12D0134B8E
:103D80005B685B0C03F0010328333B4413F8283CC9
:103D9000BB617B690E4A03FB02F2BB69B2FBF3F322
:103DA0007B6204E07B690B4A02FB03F37B627B6A64
:103DB0003B6202E0064B3B6200BF3B6A1846283775
:103DC000BD4690BC704700BF089A00080010024032
:103DD00000127A0000093D0080B400AF024B1B685E
:103DE0001846BD4680BC70470400002080B500AF77
:103DF000FFF7F2FF0246054B5B681B0A03F007035F
:103E00000349CB5C22FA03F3184680BD0010024040
:103E1000389A000880B500AFFFF7DEFF0246054B79
:103E20005B68DB0A03F007030349CB5C22FA03F368
:103E3000184680BD00100240389A000880B485B052
:103E400000AF78600A4B1B680A4AA2FB03235B0A97
:103E50007A6802FB03F3FB6000BFFB685A1EFA603E
:103E6000002BF9D100BF00BF1437BD4680BC70479E
:103E700004000020D34D621080B586B000AF78609A
:103E800000233B610023FB607B681B6803F0010398
:103E9000002B7DD00023FB754F4BDB6903F0805373
:103EA000002B0DD14C4BDB694B4A43F08053D3615F
:103EB000494BDB6903F08053BB60BB680123FB7592
:103EC000464B1B6803F48073002B18D1434B1B68CF
:103ED000424A43F480731360FEF70EFB386108E03A
:103EE000FEF70AFB02463B69D31A642B01D9032370
:103EF0006DE03A4B1B6803F48073002BF0D0364B17
:103F00001B6A03F44073FB60FB68002B2ED07B68B8
:103F10005B6803F44073FA689A4227D02E4B1B6A01
:103F200023F44073FB602E4B01221A602C4B0022BD
:103F30001A60294AFB681362FB6803F00103002B37
:103F400014D0FEF7D9FA38610AE0FEF7D5FA024636
:103F50003B69D31A41F28832934201D9032336E0F8
:103F60001D4B1B6A03F00203002BEED01A4B1B6A99
:103F700023F440727B685B68174913430B62FB7D37
:103F8000012B05D1144BDB69134A23F08053D36115
:103F90007B681B6803F00203002B08D00E4B5B68A4
:103FA00023F440427B689B680B4913434B607B685A
:103FB0001B6803F01003002B08D0074B5B6823F449
:103FC00080027B68DB68044913434B60002318467A
:103FD0001837BD4680BD00BF001002400070004091
:103FE0004004424290B58DB000AF7860584B07F165
:103FF0000C040FCB84E80F0040F201233B81002327
:104000007B620023FB6200233B620023FB610023F1
:10401000BB627B68102B0AD07B68102B00F28E806D
:104020007B68012B49D07B68022B79D086E0494B15
:104030005B68FB61474B1B6803F08073002B7FD0EC
:10404000FB699B0C03F00F0330333B4413F8243C13
:104050003B62FB6903F48033002B17D03D4B5B6858
:104060005B0C03F0010330333B4413F8283C7B62C4
:10407000FB6903F48033002B0DD0374A7B6AB2FB17
:10408000F3F23B6A02FB03F3FB6204E03B6A334A50
:1040900002FB03F3FB622F4B5B6803F48003B3F571
:1040A000800F02D1FB6ABB624AE0FB6A5B002C4ACC
:1040B000A2FB03235B08BB6242E0264B1B6AFB6149
:1040C000FB6903F44073B3F5807F08D1FB6903F00B
:1040D0000203002B03D04FF40043BB621FE0FB69D7
:1040E00003F44073B3F5007F09D11A4B5B6A03F008
:1040F0000203002B03D049F64043BB620FE0FB698B
:1041000003F44073B3F5407F1CD1124B1B6803F4DA
:104110000033002B16D04FF22443BB6212E011E0B3
:10412000FFF778FE02460B4B5B689B0B03F0030323
:1041300001335B00B2FBF3F3BB6204E000BF02E0BB
:1041400000BF00E000BFBB6A18463437BD4690BDD3
:10415000189A00080010024000127A0000093D0081
:10416000ABAAAAAA80B582B000AF78607B68002BAA
:1041700001D1012341E07B6893F83D30DBB2002B95
:1041800006D17B68002283F83C207868FEF744F86B
:104190007B68022283F83D207B681A687B680433C1
:1041A0001946104600F020FC7B68012283F8462067
:1041B0007B68012283F83E207B68012283F83F2040
:1041C0007B68012283F840207B68012283F841202C
:1041D0007B68012283F842207B68012283F8432018
:1041E0007B68012283F844207B68012283F8452004
:1041F0007B68012283F83D20002318460837BD461E
:1042000080BD000080B485B000AF78607B6893F813
:104210003D30DBB2012B01D001233AE07B68022262
:1042200083F83D207B681B68DA687B681B6842F076
:104230000102DA607B681B68184A93420ED07B68E3
:104240001B68B3F1804F09D07B681B68144A934206
:1042500004D07B681B68134A934211D17B681B68AA
:104260009B6803F00703FB60FB68062B10D07B689C
:104270001B681A687B681B6842F001021A6007E03D
:104280007B681B681A687B681B6842F001021A6031
:10429000002318461437BD4680BC7047002C0140EF
:1042A000000400400008004080B582B000AF786094
:1042B0007B68002B01D1012341E07B6893F83D30FE
:1042C000DBB2002B06D17B68002283F83C207868A3
:1042D000FDF7C6FF7B68022283F83D207B681A68E1
:1042E0007B6804331946104600F07EFB7B68012290
:1042F00083F846207B68012283F83E207B680122F8
:1043000083F83F207B68012283F840207B680122EC
:1043100083F841207B68012283F842207B680122D8
:1043200083F843207B68012283F844207B680122C4
:1043300083F845207B68012283F83D20002318463E
:104340000837BD4680BD000080B584B000AF7860FE
:1043500039603B68002B09D17B6893F83E30DBB2B3
:10436000012B14BF01230023DBB222E03B68042BA6
:1043700009D17B6893F83F30DBB2012B14BF0123D6
:104380000023DBB215E03B68082B09D17B6893F86A
:104390004030DBB2012B14BF01230023DBB208E065
:1043A0007B6893F84130DBB2012B14BF012300235B
:1043B000DBB2002B01D001235EE03B68002B04D16F
:1043C0007B68022283F83E2013E03B68042B04D173
:1043D0007B68022283F83F200BE03B68082B04D166
:1043E0007B68022283F8402003E07B68022283F886
:1043F00041207B681B6801223968184600F074FD73
:104400007B681B681E4A934207D17B681B685A6C05
:104410007B681B6842F400425A647B681B68184A38
:1044200093420ED07B681B68B3F1804F09D07B6844
:104430001B68144A934204D07B681B68124A93425B
:1044400011D17B681B689B6803F00703FB60FB6866
:10445000062B10D07B681B681A687B681B6842F0CB
:1044600001021A6007E07B681B681A687B681B689A
:1044700042F001021A60002318461037BD4680BD85
:10448000002C0140000400400008004080B582B0CC
:1044900000AF78607B681B681B6903F00203022B86
:1044A00022D17B681B68DB6803F00203022B1BD15F
:1044B0007B681B686FF002021A617B6801221A7721
:1044C0007B681B689B6903F00303002B03D07868AB
:1044D00000F06FFA05E0786800F062FA786800F0A2
:1044E00071FA7B6800221A777B681B681B6903F0EE
:1044F0000403042B22D17B681B68DB6803F00403F0
:10450000042B1BD17B681B686FF004021A617B6867
:1045100002221A777B681B689B6903F44073002BA7
:1045200003D0786800F045FA05E0786800F038FAC2
:10453000786800F047FA7B6800221A777B681B686E
:104540001B6903F00803082B22D17B681B68DB681A
:1045500003F00803082B1BD17B681B686FF008026F
:104560001A617B6804221A777B681B68DB6903F099
:104570000303002B03D0786800F01BFA05E078688D
:1045800000F00EFA786800F01DFA7B6800221A77B6
:104590007B681B681B6903F01003102B22D17B681A
:1045A0001B68DB6803F01003102B1BD17B681B68B2
:1045B0006FF010021A617B6808221A777B681B680B
:1045C000DB6903F44073002B03D0786800F0F1F945
:1045D00005E0786800F0E4F9786800F0F3F97B68AA
:1045E00000221A777B681B681B6903F00103012B0B
:1045F0000ED17B681B68DB6803F00103012B07D138
:104600007B681B686FF001021A617868FDF7FCF89F
:104610007B681B681B6903F08003802B0ED17B68CD
:104620001B68DB6803F08003802B07D17B681B6865
:104630006FF080021A61786800F0E1FC7B681B680B
:104640001B6903F04003402B0ED17B681B68DB68BD
:1046500003F04003402B07D17B681B686FF04002DA
:104660001A61786800F0B7F97B681B681B6903F072
:104670002003202B0ED17B681B68DB6803F020032E
:10468000202B07D17B681B686FF020021A617868C5
:1046900000F0ACFC00BF0837BD4680BD80B584B0DB
:1046A00000AFF860B9607A60FB6893F83C30012B8A
:1046B00001D10223ACE0FB68012283F83C207B6837
:1046C0000C2B00F29F8001A252F823F00147000852
:1046D000054800080548000805480008414700084B
:1046E00005480008054800080548000883470008F9
:1046F000054800080548000805480008C3470008A9
:10470000FB681B68B968184600F0D0F9FB681B68A5
:104710009A69FB681B6842F008029A61FB681B6893
:104720009A69FB681B6822F004029A61FB681B68A7
:104730009969BB681A69FB681B680A439A6162E061
:10474000FB681B68B968184600F016FAFB681B681E
:104750009A69FB681B6842F400629A61FB681B68F7
:104760009A69FB681B6822F480629A61FB681B6887
:104770009969BB681B691A02FB681B680A439A6146
:1047800041E0FB681B68B968184600F05FFAFB68F7
:104790001B68DA69FB681B6842F00802DA61FB6893
:1047A0001B68DA69FB681B6822F00402DA61FB68A7
:1047B0001B68D969BB681A69FB681B680A43DA6120
:1047C00021E0FB681B68B968184600F0A9FAFB688D
:1047D0001B68DA69FB681B6842F40062DA61FB68F7
:1047E0001B68DA69FB681B6822F48062DA61FB6887
:1047F0001B68D969BB681B691A02FB681B680A43FE
:10480000DA6100E000BFFB68002283F83C2000234F
:1048100018461037BD4680BD80B584B000AF7860C3
:1048200039607B6893F83C30012B01D10223B3E05F
:104830007B68012283F83C207B68022283F83D20BC
:104840007B681B689B68FB60FB6823F07703FB6059
:10485000FB6823F47F43FB607B681B68FA689A60FF
:104860003B681B68B3F5005F3ED0B3F5005F00F214
:104870008780B3F5805F00F08580B3F5805F7FD8D7
:10488000702B1AD0702B7BD8602B50D0602B77D830
:10489000502B3CD0502B73D8402B58D0402B6FD886
:1048A000302B64D0302B6BD8202B60D0202B67D8D6
:1048B000002B5CD0102B5AD062E07B6818683B68F4
:1048C00099683B685A683B68DB6800F0EEFA7B68E1
:1048D0001B689B68FB60FB6843F07703FB607B68A9
:1048E0001B68FA689A604EE07B6818683B689968B4
:1048F0003B685A683B68DB6800F0D7FA7B681B6846
:104900009A687B681B6842F480429A603BE07B684F
:1049100018683B6859683B68DB681A4600F04EFA35
:104920007B681B685021184600F0A5FA2BE07B68D5
:1049300018683B6859683B68DB681A4600F06CFAF7
:104940007B681B686021184600F095FA1BE07B68C5
:1049500018683B6859683B68DB681A4600F02EFA15
:104960007B681B684021184600F085FA0BE07B68E5
:104970001A683B681B681946104600F07CFA02E092
:1049800000BF00E000BF7B68012283F83D207B6808
:10499000002283F83C20002318461037BD4680BD16
:1049A00080B483B000AF786000BF0C37BD4680BCD8
:1049B000704780B483B000AF786000BF0C37BD464D
:1049C00080BC704780B483B000AF786000BF0C3704
:1049D000BD4680BC704780B483B000AF786000BF34
:1049E0000C37BD4680BC704780B485B000AF78609E
:1049F00039607B681B68FB607B68294A93420BD057
:104A00007B68B3F1804F07D07B68264A934203D07E
:104A10007B68254A934208D1FB6823F07003FB6052
:104A20003B685B68FA681343FB607B681C4A9342EF
:104A30000BD07B68B3F1804F07D07B68194A934253
:104A400003D07B68184A934208D1FB6823F4407373
:104A5000FB603B68DB68FA681343FB60FB6823F08C
:104A600080023B685B691343FB607B68FA681A60ED
:104A70003B689A687B68DA623B681A687B689A626E
:104A80007B68074A934203D13B681A697B681A63C3
:104A90007B6801225A6100BF1437BD4680BC704755
:104AA000002C0140000400400008004080B487B0A2
:104AB00000AF786039607B681B6A23F001027B6875
:104AC0001A627B681B6A7B617B685B683B617B6801
:104AD0009B69FB60FB6823F07003FB60FB6823F0BD
:104AE0000303FB603B681B68FA681343FB607B6948
:104AF00023F002037B613B689B687A6913437B6107
:104B00007B681C4A93420CD17B6923F008037B61CC
:104B10003B68DB687A6913437B617B6923F004039C
:104B20007B617B68134A934211D13B6923F4807304
:104B30003B613B6923F400733B613B685B693A6905
:104B400013433B613B689B693A6913433B617B6854
:104B50003A695A607B68FA689A613B685A687B6870
:104B60005A637B687A691A6200BF1C37BD4680BCF5
:104B7000704700BF002C014080B487B000AF786060
:104B800039607B681B6A23F010027B681A627B68BD
:104B90001B6A7B617B685B683B617B689B69FB6030
:104BA000FB6823F4E043FB60FB6823F44073FB6085
:104BB0003B681B681B02FA681343FB607B6923F0A8
:104BC00020037B613B689B681B017A6913437B610F
:104BD0007B681D4A93420DD17B6923F080037B6182
:104BE0003B68DB681B017A6913437B617B6923F0B7
:104BF00040037B617B68144A934213D13B6923F4E1
:104C000080633B613B6923F400633B613B685B6904
:104C10009B003A6913433B613B689B699B003A697F
:104C200013433B617B683A695A607B68FA689A6112
:104C30003B685A687B689A637B687A691A6200BF2E
:104C40001C37BD4680BC7047002C014080B487B043
:104C500000AF786039607B681B6A23F480727B68E0
:104C60001A627B681B6A7B617B685B683B617B685F
:104C7000DB69FB60FB6823F07003FB60FB6823F0DB
:104C80000303FB603B681B68FA681343FB607B69A6
:104C900023F400737B613B689B681B027A691343B2
:104CA0007B617B681D4A93420DD17B6923F40063CD
:104CB0007B613B68DB681B027A6913437B617B691C
:104CC00023F480637B617B68144A934213D13B6970
:104CD00023F480533B613B6923F400533B613B6801
:104CE0005B691B013A6913433B613B689B691B018C
:104CF0003A6913433B617B683A695A607B68FA689A
:104D0000DA613B685A687B68DA637B687A691A62A1
:104D100000BF1C37BD4680BC704700BF002C01405F
:104D200080B487B000AF786039607B681B6A23F479
:104D300080527B681A627B681B6A3B617B685B6898
:104D40007B617B68DB69FB60FB6823F4E043FB600D
:104D5000FB6823F44073FB603B681B681B02FA6826
:104D60001343FB603B6923F400533B613B689B6842
:104D70001B033A6913433B617B680F4A934209D195
:104D80007B6923F480437B613B685B699B017A69A3
:104D900013437B617B687A695A607B68FA68DA61E1
:104DA0003B685A687B681A647B683A691A6200BF7C
:104DB0001C37BD4680BC7047002C014080B487B0D2
:104DC00000AFF860B9607A60FB681B6A7B61FB68C2
:104DD0001B6A23F00102FB681A62FB689B693B6156
:104DE0003B6923F0F0033B617B681B013A69134385
:104DF0003B617B6923F00A037B617A69BB681343DB
:104E00007B61FB683A699A61FB687A691A6200BF44
:104E10001C37BD4680BC704780B487B000AFF860D7
:104E2000B9607A60FB681B6A23F01002FB681A62A3
:104E3000FB689B697B61FB681B6A3B617B6923F4B0
:104E400070437B617B681B037A6913437B613B6919
:104E500023F0A0033B61BB681B013A6913433B612C
:104E6000FB687A699A61FB683A691A6200BF1C376D
:104E7000BD4680BC704780B485B000AF78603960B3
:104E80007B689B68FB60FB6823F07003FB603A68FB
:104E9000FB68134343F00703FB607B68FA689A6082
:104EA00000BF1437BD4680BC704780B487B000AFE8
:104EB000F860B9607A603B60FB689B687B617B69E6
:104EC00023F47F437B613B681A027B681A43BB680B
:104ED00013437A6913437B61FB687A699A6000BF68
:104EE0001C37BD4680BC704780B487B000AFF86007
:104EF000B9607A60BB6803F01F03012202FA03F372
:104F00007B61FB681A6A7B69DB431A40FB681A62A3
:104F1000FB681A6ABB6803F01F03796801FA03F3A0
:104F20001A43FB681A6200BF1C37BD4680BC70473D
:104F300080B485B000AF786039607B6893F83C300E
:104F4000012B01D1022346E07B68012283F83C203B
:104F50007B68022283F83D207B681B685B68FB60EE
:104F60007B681B689B68BB60FB6823F07003FB6079
:104F70003B681B68FA681343FB607B681B68FA6830
:104F80005A607B681B68164A93420ED07B681B6888
:104F9000B3F1804F09D07B681B68124A934204D05A
:104FA0007B681B68104A93420CD1BB6823F08003D6
:104FB000BB603B685B68BA681343BB607B681B6877
:104FC000BA689A607B68012283F83D207B680022E2
:104FD00083F83C20002318461437BD4680BC704738
:104FE000002C0140000400400008004080B483B061
:104FF00000AF786000BF0C37BD4680BC704780B4FE
:1050000083B000AF786000BF0C37BD4680BC7047EE
:1050100080B582B000AF78607B68002B01D101239E
:105020003FE07B6893F83D30DBB2002B06D17B6814
:10503000002283F83C207868FDF78CF97B682422F5
:1050400083F83D207B681B68DA687B681B6822F464
:105050000052DA60786800F085FC7B681B681A698A
:105060007B681B6822F490421A617B681B685A694E
:105070007B681B6822F02A025A617B681B68DA6829
:105080007B681B6842F40052DA607B6800221A6475
:105090007B68202283F83D207B68202283F83E2015
:1050A000002318460837BD4680BD80B58AB002AFE0
:1050B000F860B9603B601346FB8000237B61FB68AE
:1050C00093F83D30DBB2202B7CD1BB68002B02D0A3
:1050D000FB88002B01D1012375E0FB6893F83C307D
:1050E000012B01D102236EE0FB68012283F83C20F2
:1050F000FB6800221A64FB68212283F83D20FDF73B
:10510000FBF97861FB68FA889A84FB68FA88DA848C
:10511000FB689B68B3F5805F08D1FB681B69002BB7
:1051200004D10023FB61BB68BB6103E0BB68FB618A
:105130000023BB61FB68002283F83C202AE03B6827
:1051400000937B6900228021F86800F038FA03465A
:10515000002B01D0032336E0FB69002B0BD1BB6988
:105160001B881A46FB681B68C2F308025A60BB69B9
:105170000233BB6107E0FB691A78FB681B685A6061
:10518000FB690133FB61FB68DB8C9BB2013B9AB28C
:10519000FB68DA84FB68DB8C9BB2002BCFD13B68C9
:1051A00000937B6900224021F86800F008FA03466A
:1051B000002B01D0032306E0FB68202283F83D206A
:1051C000002300E0022318462037BD4680BD80B58D
:1051D00084B000AFF860B9601346FB80FB6893F8B9
:1051E0003E30DBB2202B1DD1BB68002B02D0FB88E8
:1051F000002B01D1012316E0FB6893F83C30012B12
:1052000001D102230FE0FB68012283F83C20FB68F8
:1052100000221A63FB881A46B968F86800F019FA88
:10522000034600E0022318461037BD4680BD00004B
:1052300080B58AB000AF78607B681B681B687B62B2
:105240007B681B68DB683B627B681B685B69FB6192
:105250000023BB6100237B617B6A03F00F03BB610A
:10526000BB69002B0DD17B6A03F02003002B08D013
:105270003B6A03F02003002B03D0786800F0C9FAE2
:105280007BE1BB69002B00F0B180FB6903F00103F7
:10529000002B05D13B6A03F49073002B00F0A6802D
:1052A0007B6A03F00103002B0AD03B6A03F480738E
:1052B000002B05D07B681B6C43F001027B681A64ED
:1052C0007B6A03F00403002B0AD0FB6903F001039F
:1052D000002B05D07B681B6C43F002027B681A64CC
:1052E0007B6A03F00203002B0AD0FB6903F0010381
:1052F000002B05D07B681B6C43F004027B681A64AA
:105300007B6A03F00803002B0FD03B6A03F02003F5
:10531000002B04D1FB6903F00103002B05D07B684F
:105320001B6C43F008027B681A647B681B6C002BC3
:1053300000F01E817B6A03F02003002B07D03B6A3C
:1053400003F02003002B02D0786800F062FA7B683B
:105350001B685B6903F04003002B14BF012300238B
:10536000DBB27B617B681B6C03F00803002B02D16E
:105370007B69002B31D0786800F0A4F97B681B684A
:105380005B6903F04003002B23D07B681B685A69DC
:105390007B681B6822F040025A617B689B6B002B84
:1053A00013D07B689B6B764A5A637B689B6B18466D
:1053B000FDF71CFF0346002B16D07B689B6B5B6BD5
:1053C0007A68926B104698470EE0786800F0E3F830
:1053D0000AE0786800F0DFF806E0786800F0DBF8B3
:1053E0007B6800221A64C3E000BFC1E07B681B6BCE
:1053F000012B40F0A1807B6A03F01003002B00F02A
:105400009B803B6A03F01003002B00F09580002383
:10541000FB607B681B681B68FB607B681B685B68C4
:10542000FB60FB687B681B685B6903F04003002B33
:105430004ED07B689B6B1B685B683B823B8A002B72
:1054400000F098807B689B8D3A8A9A4280F0928027
:105450007B683A8ADA857B689B6B9B69202B2BD013
:105460007B681B68DA687B681B6822F48072DA60EC
:105470007B681B685A697B681B6822F001025A61CD
:105480007B681B685A697B681B6822F040025A617E
:105490007B68202283F83E207B6800221A637B68A9
:1054A0001B68DA687B681B6822F01002DA607B6890
:1054B0009B6B1846FDF75FFE7B689A8D7B68DB8DE2
:1054C0009BB2D31A9BB21946786800F06DF851E090
:1054D0007B689A8D7B68DB8D9BB2D31A7B827B685D
:1054E000DB8D9BB2002B47D07B8A002B44D07B689E
:1054F0001B68DA687B681B6822F49072DA607B684C
:105500001B685A697B681B6822F001025A617B683C
:10551000202283F83E207B6800221A637B681B6888
:10552000DA687B681B6822F01002DA607B8A194611
:10553000786800F039F81FE07B6A03F08003002BE5
:1055400008D03B6A03F08003002B03D0786800F09A
:10555000F9F812E07B6A03F04003002B0DD03B6AA0
:1055600003F04003002B08D0786800F03AF904E01B
:1055700000BF02E000BF00E000BF2837BD4680BD8D
:105580001D57000880B483B000AF786000BF0C37AF
:10559000BD4680BC704780B483B000AF786000BF68
:1055A0000C37BD4680BC704780B483B000AF7860D4
:1055B0000B467B8000BF0C37BD4680BC704780B572
:1055C00084B000AFF860B9603B601346FB712CE01B
:1055D000BB69B3F1FF3F28D0BB69002B07D0FCF7B4
:1055E0008BFF02463B68D31ABA699A421DD2FB6808
:1055F0001B68DA68FB681B6822F4D072DA60FB680B
:105600001B685A69FB681B6822F001025A61FB683B
:10561000202283F83D20FB68202283F83E20FB688F
:10562000002283F83C2003230FE0FB681B681A6804
:10563000BB681340BA689A420CBF01230023DBB257
:105640001A46FB799A42C3D0002318461037BD464C
:1056500080BD80B485B000AFF860B9601346FB80B0
:10566000FB68BA689A62FB68FA889A85FB68FA88D0
:10567000DA85FB6800221A64FB68222283F83E2048
:10568000FB68002283F83C20FB681B68DA68FB6833
:105690001B6842F48072DA60FB681B685A69FB6819
:1056A0001B6842F001025A61FB681B68DA68FB68FC
:1056B0001B6842F02002DA60002318461437BD460A
:1056C00080BC704780B483B000AF78607B681B6893
:1056D000DA687B681B6822F49072DA607B681B686A
:1056E0005A697B681B6822F001025A617B681B6B58
:1056F000012B07D17B681B68DA687B681B6822F086
:105700001002DA607B68202283F83E207B6800224A
:105710001A6300BF0C37BD4680BC704780B584B0AB
:1057200000AF78607B685B6AFB60FB680022DA850B
:10573000FB680022DA84F868FFF72DFF00BF1037FE
:10574000BD4680BD80B485B000AF78607B6893F8BB
:105750003D30DBB2212B3ED17B689B68B3F5805F87
:1057600014D17B681B69002B10D17B681B6AFB601E
:10577000FB681B881A467B681B68C2F308025A60E4
:105780007B681B6A9A1C7B681A6208E07B681B6A4C
:10579000591C7A6811621A787B681B685A607B68AA
:1057A000DB8C9BB2013B9BB27A681946D184002BFB
:1057B0000FD17B681B68DA687B681B6822F0800267
:1057C000DA607B681B68DA687B681B6842F040021D
:1057D000DA60002300E0022318461437BD4680BC7F
:1057E000704780B582B000AF78607B681B68DA686C
:1057F0007B681B6822F04002DA607B68202283F815
:105800003D207868FFF7BEFE002318460837BD46E6
:1058100080BD80B586B000AF78607B6893F83E307D
:10582000DBB2222B40F099807B689B68B3F5805FE8
:1058300017D17B681B69002B13D100237B617B6828
:105840009B6A3B617B681B685B689BB2C3F3080380
:105850009AB23B691A807B689B6A9A1C7B689A6241
:1058600026E07B689B6A7B6100233B617B689B68C9
:10587000B3F5805F07D07B689B68002B0AD17B68FB
:105880001B69002B06D17B681B685B68DAB27B69F9
:105890001A7008E07B681B685B68DBB203F07F036B
:1058A000DAB27B691A707B689B6A5A1C7B689A62C1
:1058B0007B68DB8D9BB2013B9BB27A681946D18530
:1058C000002B48D17B681B68DA687B681B6822F074
:1058D0002002DA607B681B68DA687B681B6822F448
:1058E0008072DA607B681B685A697B681B6822F0EB
:1058F00001025A617B68202283F83E207B681B6B83
:10590000012B23D17B6800221A637B681B68DA684D
:105910007B681B6822F01002DA607B681B681B68DA
:1059200003F01003102B0AD10023FB607B681B6877
:105930001B68FB607B681B685B68FB60FB687B68BF
:105940009B8D19467868FFF72FFE02E07868FBF719
:105950006FFF002302E0002300E0022318461837FF
:10596000BD4680BD80B584B000AF78607B681B68A1
:105970001B6923F440517B68DA687B681B680A4323
:105980001A617B689A687B681B691A437B685B694C
:105990001343BB607B681B68DB6823F4B05323F0C0
:1059A0000C037A681268B9680B43D3607B681B6884
:1059B0005B6923F440717B689A697B681B680A43C2
:1059C0005A617B681B682C4A934203D1FEF722FA86
:1059D000F86002E0FEF70AFAF860FA6813469B00E6
:1059E00013449A001A447B685B689B00B2FBF3F394
:1059F000224AA2FB03235B091901FA6813469B00A4
:105A000013449A001A447B685B689B00B2FBF3F274
:105A10001A4BA3FB02035B09642000FB03F3D31AB8
:105A20001B013233154AA2FB03235B0903F0F00389
:105A30001944FA6813469B0013449A001A447B6881
:105A40005B689B00B2FBF3F20C4BA3FB02035B0908
:105A5000642000FB03F3D31A1B013233074AA2FB75
:105A600003235B0903F00F027B681B680A449A60FA
:105A700000BF1037BD4680BD003801401F85EB5187
:105A8000002100F0B1BE0000024B0146186800F092
:105A900025B800BF8801002070B50F4E0C46316854
:105AA000054611B901F062FD30602146284601F03B
:105AB0005DFD431C03D14FF0FF34204670BDC41C74
:105AC00024F00304A042F8D0211A284601F04EFD2C
:105AD0000130F2D1EFE700BF540300202DE9F84375
